{"abi":[{"type":"constructor","inputs":[{"name":"bankCapUSD","type":"uint256","internalType":"uint256"},{"name":"withdrawalLimitUSD","type":"uint256","internalType":"uint256"},{"name":"ethUsdFeed","type":"address","internalType":"address"},{"name":"admin","type":"address","internalType":"address"},{"name":"_uniswapRouter","type":"address","internalType":"address"},{"name":"_usdc","type":"address","internalType":"address"}],"stateMutability":"nonpayable"},{"type":"fallback","stateMutability":"payable"},{"type":"receive","stateMutability":"payable"},{"type":"function","name":"ADMIN_ROLE","inputs":[],"outputs":[{"name":"","type":"bytes32","internalType":"bytes32"}],"stateMutability":"view"},{"type":"function","name":"BANK_CAP_USD","inputs":[],"outputs":[{"name":"","type":"uint256","internalType":"uint256"}],"stateMutability":"view"},{"type":"function","name":"DEFAULT_ADMIN_ROLE","inputs":[],"outputs":[{"name":"","type":"bytes32","internalType":"bytes32"}],"stateMutability":"view"},{"type":"function","name":"DEFAULT_DEADLINE","inputs":[],"outputs":[{"name":"","type":"uint256","internalType":"uint256"}],"stateMutability":"view"},{"type":"function","name":"MAX_SLIPPAGE_BPS","inputs":[],"outputs":[{"name":"","type":"uint256","internalType":"uint256"}],"stateMutability":"view"},{"type":"function","name":"USDC","inputs":[],"outputs":[{"name":"","type":"address","internalType":"address"}],"stateMutability":"view"},{"type":"function","name":"WITHDRAWAL_LIMIT_USD","inputs":[],"outputs":[{"name":"","type":"uint256","internalType":"uint256"}],"stateMutability":"view"},{"type":"function","name":"addSupportedToken","inputs":[{"name":"token","type":"address","internalType":"address"}],"outputs":[],"stateMutability":"nonpayable"},{"type":"function","name":"depositERC20","inputs":[{"name":"token","type":"address","internalType":"address"},{"name":"amount","type":"uint256","internalType":"uint256"}],"outputs":[],"stateMutability":"nonpayable"},{"type":"function","name":"depositETH","inputs":[],"outputs":[],"stateMutability":"payable"},{"type":"function","name":"depositTokenWithSwap","inputs":[{"name":"tokenIn","type":"address","internalType":"address"},{"name":"amountIn","type":"uint256","internalType":"uint256"},{"name":"minAmountOut","type":"uint256","internalType":"uint256"}],"outputs":[],"stateMutability":"nonpayable"},{"type":"function","name":"getAvailableSpaceUSD","inputs":[],"outputs":[{"name":"","type":"uint256","internalType":"uint256"}],"stateMutability":"view"},{"type":"function","name":"getCounters","inputs":[],"outputs":[{"name":"deposits","type":"uint256","internalType":"uint256"},{"name":"withdrawals","type":"uint256","internalType":"uint256"}],"stateMutability":"view"},{"type":"function","name":"getEthUsdPrice","inputs":[],"outputs":[{"name":"","type":"uint256","internalType":"uint256"}],"stateMutability":"view"},{"type":"function","name":"getExpectedOutput","inputs":[{"name":"tokenIn","type":"address","internalType":"address"},{"name":"amountIn","type":"uint256","internalType":"uint256"}],"outputs":[{"name":"","type":"uint256","internalType":"uint256"}],"stateMutability":"view"},{"type":"function","name":"getRoleAdmin","inputs":[{"name":"role","type":"bytes32","internalType":"bytes32"}],"outputs":[{"name":"","type":"bytes32","internalType":"bytes32"}],"stateMutability":"view"},{"type":"function","name":"getSupportedTokens","inputs":[],"outputs":[{"name":"","type":"address[]","internalType":"address[]"}],"stateMutability":"view"},{"type":"function","name":"getSwapPath","inputs":[{"name":"token","type":"address","internalType":"address"}],"outputs":[{"name":"","type":"address[]","internalType":"address[]"}],"stateMutability":"view"},{"type":"function","name":"getTotalBankBalanceUSD","inputs":[],"outputs":[{"name":"","type":"uint256","internalType":"uint256"}],"stateMutability":"view"},{"type":"function","name":"getUserBalance","inputs":[{"name":"user","type":"address","internalType":"address"},{"name":"token","type":"address","internalType":"address"}],"outputs":[{"name":"","type":"uint256","internalType":"uint256"}],"stateMutability":"view"},{"type":"function","name":"grantRole","inputs":[{"name":"role","type":"bytes32","internalType":"bytes32"},{"name":"account","type":"address","internalType":"address"}],"outputs":[],"stateMutability":"nonpayable"},{"type":"function","name":"hasRole","inputs":[{"name":"role","type":"bytes32","internalType":"bytes32"},{"name":"account","type":"address","internalType":"address"}],"outputs":[{"name":"","type":"bool","internalType":"bool"}],"stateMutability":"view"},{"type":"function","name":"isTokenSupported","inputs":[{"name":"token","type":"address","internalType":"address"}],"outputs":[{"name":"","type":"bool","internalType":"bool"}],"stateMutability":"view"},{"type":"function","name":"removeSupportedToken","inputs":[{"name":"token","type":"address","internalType":"address"}],"outputs":[],"stateMutability":"nonpayable"},{"type":"function","name":"renounceRole","inputs":[{"name":"role","type":"bytes32","internalType":"bytes32"},{"name":"account","type":"address","internalType":"address"}],"outputs":[],"stateMutability":"nonpayable"},{"type":"function","name":"revokeRole","inputs":[{"name":"role","type":"bytes32","internalType":"bytes32"},{"name":"account","type":"address","internalType":"address"}],"outputs":[],"stateMutability":"nonpayable"},{"type":"function","name":"setEthUsdFeed","inputs":[{"name":"newFeed","type":"address","internalType":"address"}],"outputs":[],"stateMutability":"nonpayable"},{"type":"function","name":"setSwapPath","inputs":[{"name":"token","type":"address","internalType":"address"},{"name":"path","type":"address[]","internalType":"address[]"}],"outputs":[],"stateMutability":"nonpayable"},{"type":"function","name":"supportsInterface","inputs":[{"name":"interfaceId","type":"bytes4","internalType":"bytes4"}],"outputs":[{"name":"","type":"bool","internalType":"bool"}],"stateMutability":"view"},{"type":"function","name":"uniswapRouter","inputs":[],"outputs":[{"name":"","type":"address","internalType":"contract IUniswapV2Router02"}],"stateMutability":"view"},{"type":"function","name":"usdcAddress","inputs":[],"outputs":[{"name":"","type":"address","internalType":"address"}],"stateMutability":"view"},{"type":"function","name":"withdrawERC20","inputs":[{"name":"token","type":"address","internalType":"address"},{"name":"amount","type":"uint256","internalType":"uint256"}],"outputs":[],"stateMutability":"nonpayable"},{"type":"function","name":"withdrawETH","inputs":[{"name":"amount","type":"uint256","internalType":"uint256"}],"outputs":[],"stateMutability":"nonpayable"},{"type":"event","name":"Deposit","inputs":[{"name":"user","type":"address","indexed":true,"internalType":"address"},{"name":"token","type":"address","indexed":true,"internalType":"address"},{"name":"amount","type":"uint256","indexed":false,"internalType":"uint256"},{"name":"amountUSD","type":"uint256","indexed":false,"internalType":"uint256"}],"anonymous":false},{"type":"event","name":"FeedUpdated","inputs":[{"name":"newFeed","type":"address","indexed":true,"internalType":"address"}],"anonymous":false},{"type":"event","name":"RoleAdminChanged","inputs":[{"name":"role","type":"bytes32","indexed":true,"internalType":"bytes32"},{"name":"previousAdminRole","type":"bytes32","indexed":true,"internalType":"bytes32"},{"name":"newAdminRole","type":"bytes32","indexed":true,"internalType":"bytes32"}],"anonymous":false},{"type":"event","name":"RoleGranted","inputs":[{"name":"role","type":"bytes32","indexed":true,"internalType":"bytes32"},{"name":"account","type":"address","indexed":true,"internalType":"address"},{"name":"sender","type":"address","indexed":true,"internalType":"address"}],"anonymous":false},{"type":"event","name":"RoleRevoked","inputs":[{"name":"role","type":"bytes32","indexed":true,"internalType":"bytes32"},{"name":"account","type":"address","indexed":true,"internalType":"address"},{"name":"sender","type":"address","indexed":true,"internalType":"address"}],"anonymous":false},{"type":"event","name":"SwapPathSet","inputs":[{"name":"token","type":"address","indexed":true,"internalType":"address"},{"name":"path","type":"address[]","indexed":false,"internalType":"address[]"}],"anonymous":false},{"type":"event","name":"TokenAdded","inputs":[{"name":"token","type":"address","indexed":true,"internalType":"address"}],"anonymous":false},{"type":"event","name":"TokenRemoved","inputs":[{"name":"token","type":"address","indexed":true,"internalType":"address"}],"anonymous":false},{"type":"event","name":"TokenSwapped","inputs":[{"name":"user","type":"address","indexed":true,"internalType":"address"},{"name":"tokenIn","type":"address","indexed":true,"internalType":"address"},{"name":"amountIn","type":"uint256","indexed":false,"internalType":"uint256"},{"name":"amountOutUSDC","type":"uint256","indexed":false,"internalType":"uint256"}],"anonymous":false},{"type":"event","name":"Withdrawal","inputs":[{"name":"user","type":"address","indexed":true,"internalType":"address"},{"name":"token","type":"address","indexed":true,"internalType":"address"},{"name":"amount","type":"uint256","indexed":false,"internalType":"uint256"},{"name":"amountUSD","type":"uint256","indexed":false,"internalType":"uint256"}],"anonymous":false},{"type":"error","name":"KipuBankV2__AmountMustBeGreaterThanZero","inputs":[]},{"type":"error","name":"KipuBankV2__DepositExceedsBankCap","inputs":[{"name":"attempted","type":"uint256","internalType":"uint256"},{"name":"available","type":"uint256","internalType":"uint256"}]},{"type":"error","name":"KipuBankV2__InsufficientBalance","inputs":[{"name":"requested","type":"uint256","internalType":"uint256"},{"name":"available","type":"uint256","internalType":"uint256"}]},{"type":"error","name":"KipuBankV2__InvalidToken","inputs":[]},{"type":"error","name":"KipuBankV2__OracleCompromised","inputs":[]},{"type":"error","name":"KipuBankV2__StalePrice","inputs":[]},{"type":"error","name":"KipuBankV2__TokenAlreadySupported","inputs":[]},{"type":"error","name":"KipuBankV2__TokenNotSupported","inputs":[]},{"type":"error","name":"KipuBankV2__TransferFailed","inputs":[]},{"type":"error","name":"KipuBankV2__WithdrawalExceedsLimit","inputs":[{"name":"attempted","type":"uint256","internalType":"uint256"},{"name":"limit","type":"uint256","internalType":"uint256"}]},{"type":"error","name":"KipuBankV3__InsufficientOutputAmount","inputs":[]},{"type":"error","name":"KipuBankV3__InvalidRouter","inputs":[]},{"type":"error","name":"KipuBankV3__InvalidSwapPath","inputs":[]},{"type":"error","name":"KipuBankV3__InvalidUSDC","inputs":[]},{"type":"error","name":"KipuBankV3__SlippageTooHigh","inputs":[{"name":"expected","type":"uint256","internalType":"uint256"},{"name":"minimum","type":"uint256","internalType":"uint256"}]},{"type":"error","name":"KipuBankV3__SwapFailed","inputs":[]},{"type":"error","name":"KipuBankV3__SwapPathNotSet","inputs":[]}],"bytecode":{"object":"0x610120604052348015610010575f80fd5b5060405161313238038061313283398101604081905261002f91610232565b60018055608086905260a08590526001600160a01b0381811660c052600280546001600160a01b03191691861691909117905585858585846100715f8361017a565b61009b7fa49807205ce4d355092ef5a8a18f56e8913cf4a201fbe287825b095693c217758361017a565b5050600560205250507f05b8ccbb9d4d8fb16ea74ce3c29a41f1b461fbdaff4714a0d9a8eb05499746bc805460ff191660019081179091556007805491820181555f527fa66cc928b5edb82af9bd49922954155ab7b0942694bea4ce44661d9a8736c6880180546001600160a01b0319169055506001600160a01b03821661013657604051630bf6011560e31b815260040160405180910390fd5b6001600160a01b03811661015d576040516384c1de2f60e01b815260040160405180910390fd5b6001600160a01b0391821660e05216610100525061029592505050565b5f828152602081815260408083206001600160a01b038516845290915290205460ff16610213575f828152602081815260408083206001600160a01b03851684529091529020805460ff191660011790556101d23390565b6001600160a01b0316816001600160a01b0316837f2f8788117e7eff1d82e926ec794901d17c78024a50270940304540a733656f0d60405160405180910390a45b5050565b80516001600160a01b038116811461022d575f80fd5b919050565b5f805f805f8060c08789031215610247575f80fd5b86516020880151909650945061025f60408801610217565b935061026d60608801610217565b925061027b60808801610217565b915061028960a08801610217565b90509295509295509295565b60805160a05160c05160e05161010051612ddb6103575f395f818161024d015261134501525f818161040d015281816118e401528181611af10152611b5101525f81816104e901528181611ce301528181611d2c0152611d8401525f818161029801528181611025015281816110610152818161146901526114a501525f81816104b6015281816106df0152818161071501528181610e6d01528181610ea3015281816111b8015281816111ea01528181611c6c0152611ca20152612ddb5ff3fe6080604052600436106101f1575f3560e01c806389a302711161010c578063d1b50a8c1161009f578063dff423e41161006e578063dff423e414610636578063e229cd761461064a578063f14210a61461065f578063f6326fb31461067e578063f63fb9211461068657610200565b8063d1b50a8c146105b8578063d3c7c2c7146105d7578063d547741f146105f8578063df6d21f01461061757610200565b8063a1db9782116100db578063a1db97821461055d578063a217fddf1461057c578063a7bd60f61461058f578063b3bfd40e146105a457610200565b806389a30271146104d857806391d148541461050b57806397feb9261461052a578063a0a8045e1461054957610200565b80636abb871f1161018457806375151b631161015357806375151b631461042f57806375b238fc146104665780637631919014610486578063893b7e95146104a557610200565b80636abb871f146103975780636d69fcaf146103be5780636df5239f146103dd578063735de9f7146103fc57610200565b80632f2ff15d116101c05780632f2ff15d146102f657806336568abe1461031557806355a75475146103345780636805d6ad1461035357610200565b806301ffc9a71461020857806302d454571461023c5780631936d89014610287578063248a9ca3146102c857610200565b36610200576101fe6106a5565b005b6101fe6106a5565b348015610213575f80fd5b506102276102223660046126f9565b610823565b60405190151581526020015b60405180910390f35b348015610247575f80fd5b5061026f7f000000000000000000000000000000000000000000000000000000000000000081565b6040516001600160a01b039091168152602001610233565b348015610292575f80fd5b506102ba7f000000000000000000000000000000000000000000000000000000000000000081565b604051908152602001610233565b3480156102d3575f80fd5b506102ba6102e2366004612720565b5f9081526020819052604090206001015490565b348015610301575f80fd5b506101fe610310366004612752565b610859565b348015610320575f80fd5b506101fe61032f366004612752565b610882565b34801561033f575f80fd5b506101fe61034e36600461277c565b610900565b34801561035e575f80fd5b506102ba61036d366004612795565b6001600160a01b039182165f90815260036020908152604080832093909416825291909152205490565b3480156103a2575f80fd5b5060085460095460408051928352602083019190915201610233565b3480156103c9575f80fd5b506101fe6103d836600461277c565b610961565b3480156103e8575f80fd5b506101fe6103f73660046127bd565b610ade565b348015610407575f80fd5b5061026f7f000000000000000000000000000000000000000000000000000000000000000081565b34801561043a575f80fd5b5061022761044936600461277c565b6001600160a01b03165f9081526005602052604090205460ff1690565b348015610471575f80fd5b506102ba5f80516020612d8683398151915281565b348015610491575f80fd5b506101fe6104a036600461277c565b610c2f565b3480156104b0575f80fd5b506102ba7f000000000000000000000000000000000000000000000000000000000000000081565b3480156104e3575f80fd5b5061026f7f000000000000000000000000000000000000000000000000000000000000000081565b348015610516575f80fd5b50610227610525366004612752565b610dca565b348015610535575f80fd5b506101fe6105443660046127ed565b610df2565b348015610554575f80fd5b506102ba610fa7565b348015610568575f80fd5b506101fe6105773660046127ed565b610fb5565b348015610587575f80fd5b506102ba5f81565b34801561059a575f80fd5b506102ba61038481565b3480156105af575f80fd5b506102ba6111aa565b3480156105c3575f80fd5b506102ba6105d23660046127ed565b611214565b3480156105e2575f80fd5b506105eb611226565b6040516102339190612858565b348015610603575f80fd5b506101fe610612366004612752565b611286565b348015610622575f80fd5b506101fe61063136600461286a565b6112aa565b348015610641575f80fd5b506102ba611429565b348015610655575f80fd5b506102ba6101f481565b34801561066a575f80fd5b506101fe610679366004612720565b611432565b6101fe6115ed565b348015610691575f80fd5b506105eb6106a036600461277c565b611608565b34805f036106c6576040516303783e8b60e41b815260040160405180910390fd5b5f6106d03461167b565b90505f6106db6116a5565b90507f000000000000000000000000000000000000000000000000000000000000000061070883836128ff565b11156107605781610739827f0000000000000000000000000000000000000000000000000000000000000000612912565b6040516382651efd60e01b8152600481019290925260248201526044015b60405180910390fd5b335f908152600360209081526040808320838052909152812080548492906107899084906128ff565b90915550505f80805260046020527f17ef568e3e12ab5b9c7254a8d58478811de00f9e6eb34345acd53bf8fd09d3ec80548492906107c89084906128ff565b909155505060088054905f6107dc83612925565b909155505060408051348152602081018490525f9133917fdcbc1c05240f31ff3ad067ef1ee35ce4997762752e3a095284754544f4c709d7910160405180910390a3505050565b5f6001600160e01b03198216637965db0b60e01b148061085357506301ffc9a760e01b6001600160e01b03198316145b92915050565b5f8281526020819052604090206001015461087381611707565b61087d8383611711565b505050565b6001600160a01b03811633146108f25760405162461bcd60e51b815260206004820152602f60248201527f416363657373436f6e74726f6c3a2063616e206f6e6c792072656e6f756e636560448201526e103937b632b9903337b91039b2b63360891b6064820152608401610757565b6108fc8282611794565b5050565b5f80516020612d8683398151915261091781611707565b600280546001600160a01b0319166001600160a01b0384169081179091556040517f3bb3a2cd941891a83cb5e1a494307c71512cdbbc4a87abd52dd499e969cdfa35905f90a25050565b5f80516020612d8683398151915261097881611707565b6001600160a01b0382165f9081526005602052604090205460ff16156109b1576040516370535c0960e01b815260040160405180910390fd5b816001600160a01b031663313ce5676040518163ffffffff1660e01b8152600401602060405180830381865afa925050508015610a0b575060408051601f3d908101601f19168201909252610a089181019061293d565b60015b610a2857604051630bef610f60e21b815260040160405180910390fd5b6001600160a01b0383165f908152600660205260409020805460ff90921660ff199092169190911790556001600160a01b0382165f81815260056020526040808220805460ff1916600190811790915560078054918201815583527fa66cc928b5edb82af9bd49922954155ab7b0942694bea4ce44661d9a8736c6880180546001600160a01b03191684179055517f784c8f4dbf0ffedd6e72c76501c545a70f8b203b30a26ce542bf92ba87c248a49190a25050565b610ae66117f8565b81805f03610b07576040516303783e8b60e41b815260040160405180910390fd5b6001600160a01b0384165f908152600a6020908152604080832080548251818502810185019093528083529192909190830182828015610b6e57602002820191905f5260205f20905b81546001600160a01b03168152600190910190602001808311610b50575b5050505050905080515f03610b965760405163076e816d60e51b815260040160405180910390fd5b5f610ba18686611851565b9050610bad8185611994565b610bc26001600160a01b038716333088611a10565b5f610bce878787611a81565b905080610bdb3382611c3e565b60408051888152602081018490526001600160a01b038a169133917f30b60ee4dc75c0fb04420331b13e9ad7f8ff8fc51eac9c97d36fb20ccbe09d66910160405180910390a3505050505061087d60018055565b5f80516020612d86833981519152610c4681611707565b6001600160a01b0382165f9081526005602052604090205460ff16610c7e576040516316afee2f60e21b815260040160405180910390fd5b6001600160a01b0382165f908152600560205260408120805460ff191690555b600754811015610d9257826001600160a01b031660078281548110610cc557610cc561295d565b5f918252602090912001546001600160a01b031603610d8a5760078054610cee90600190612912565b81548110610cfe57610cfe61295d565b5f91825260209091200154600780546001600160a01b039092169183908110610d2957610d2961295d565b905f5260205f20015f6101000a8154816001600160a01b0302191690836001600160a01b031602179055506007805480610d6557610d65612971565b5f8281526020902081015f1990810180546001600160a01b0319169055019055610d92565b600101610c9e565b506040516001600160a01b038316907f4c910b69fe65a61f7531b9c5042b2329ca7179c77290aa7e2eb3afa3c8511fd3905f90a25050565b5f918252602082815260408084206001600160a01b0393909316845291905290205460ff1690565b610dfa6117f8565b80805f03610e1b576040516303783e8b60e41b815260040160405180910390fd5b6001600160a01b0383165f9081526005602052604090205460ff16610e53576040516316afee2f60e21b815260040160405180910390fd5b5f610e5e8484611dfe565b90505f610e696116a5565b90507f0000000000000000000000000000000000000000000000000000000000000000610e9683836128ff565b1115610ec75781610739827f0000000000000000000000000000000000000000000000000000000000000000612912565b335f9081526003602090815260408083206001600160a01b038916845290915281208054849290610ef99084906128ff565b90915550506001600160a01b0385165f9081526004602052604081208054849290610f259084906128ff565b909155505060088054905f610f3983612925565b90915550610f5490506001600160a01b038616333087611a10565b60408051858152602081018490526001600160a01b0387169133917fdcbc1c05240f31ff3ad067ef1ee35ce4997762752e3a095284754544f4c709d791015b60405180910390a35050506108fc60018055565b5f610fb0611f47565b905090565b610fbd6117f8565b80805f03610fde576040516303783e8b60e41b815260040160405180910390fd5b6001600160a01b0383165f9081526005602052604090205460ff16611016576040516316afee2f60e21b815260040160405180910390fd5b5f6110218484611dfe565b90507f000000000000000000000000000000000000000000000000000000000000000081111561108d576040516309a1d4f360e21b8152600481018290527f00000000000000000000000000000000000000000000000000000000000000006024820152604401610757565b335f9081526003602090815260408083206001600160a01b0388168452909152902054808211156110db576040516305016a2360e11b81526004810183905260248101829052604401610757565b335f9081526003602090815260408083206001600160a01b03891684529091528120805484929061110d908490612912565b90915550506001600160a01b0385165f9081526004602052604081208054849290611139908490612912565b909155505060098054905f61114d83612925565b9091555061116790506001600160a01b0386163386612057565b60408051858152602081018490526001600160a01b0387169133917fc2b4a290c20fb28939d29f102514fbffd2b73c059ffba8b78250c94161d5fcc69101610f93565b5f806111b46116a5565b90507f000000000000000000000000000000000000000000000000000000000000000081106111e4575f91505090565b61120e817f0000000000000000000000000000000000000000000000000000000000000000612912565b91505090565b5f61121f8383611851565b9392505050565b6060600780548060200260200160405190810160405280929190818152602001828054801561127c57602002820191905f5260205f20905b81546001600160a01b0316815260019091019060200180831161125e575b5050505050905090565b5f828152602081905260409020600101546112a081611707565b61087d8383611794565b5f80516020612d868339815191526112c181611707565b60028210156112e35760405163313f4db960e01b815260040160405180910390fd5b836001600160a01b031683835f8181106112ff576112ff61295d565b9050602002016020810190611314919061277c565b6001600160a01b03161461133b5760405163313f4db960e01b815260040160405180910390fd5b6001600160a01b037f0000000000000000000000000000000000000000000000000000000000000000168383611372600182612912565b8181106113815761138161295d565b9050602002016020810190611396919061277c565b6001600160a01b0316146113bd5760405163313f4db960e01b815260040160405180910390fd5b6001600160a01b0384165f908152600a602052604090206113df908484612684565b50836001600160a01b03167f295612a307204609124196de33fc914770beead3c655273e70b8bbf902460edb848460405161141b929190612985565b60405180910390a250505050565b5f610fb06116a5565b61143a6117f8565b80805f0361145b576040516303783e8b60e41b815260040160405180910390fd5b5f6114658361167b565b90507f00000000000000000000000000000000000000000000000000000000000000008111156114d1576040516309a1d4f360e21b8152600481018290527f00000000000000000000000000000000000000000000000000000000000000006024820152604401610757565b335f90815260036020908152604080832083805290915290205480821115611516576040516305016a2360e11b81526004810183905260248101829052604401610757565b335f9081526003602090815260408083208380529091528120805484929061153f908490612912565b90915550505f80805260046020527f17ef568e3e12ab5b9c7254a8d58478811de00f9e6eb34345acd53bf8fd09d3ec805484929061157e908490612912565b909155505060098054905f61159283612925565b91905055506115a13385612087565b60408051858152602081018490525f9133917fc2b4a290c20fb28939d29f102514fbffd2b73c059ffba8b78250c94161d5fcc6910160405180910390a35050506115ea60018055565b50565b6115f56117f8565b6115fd6106a5565b61160660018055565b565b6001600160a01b0381165f908152600a602090815260409182902080548351818402810184019094528084526060939283018282801561166f57602002820191905f5260205f20905b81546001600160a01b03168152600190910190602001808311611651575b50505050509050919050565b5f80611685611f47565b905068056bc75e2d6310000061169b82856129cf565b61121f91906129e6565b5f80805b6007548110156117015760045f600783815481106116c9576116c961295d565b5f9182526020808320909101546001600160a01b031683528201929092526040019020546116f790836128ff565b91506001016116a9565b50919050565b6115ea81336120f7565b61171b8282610dca565b6108fc575f828152602081815260408083206001600160a01b03851684529091529020805460ff191660011790556117503390565b6001600160a01b0316816001600160a01b0316837f2f8788117e7eff1d82e926ec794901d17c78024a50270940304540a733656f0d60405160405180910390a45050565b61179e8282610dca565b156108fc575f828152602081815260408083206001600160a01b0385168085529252808320805460ff1916905551339285917ff6391f5c32d9c69d2a47ea670b442974b53935d1edc7fd64eb21e047a839171b9190a45050565b60026001540361184a5760405162461bcd60e51b815260206004820152601f60248201527f5265656e7472616e637947756172643a207265656e7472616e742063616c6c006044820152606401610757565b6002600155565b6001600160a01b0382165f908152600a60209081526040808320805482518185028101850190935280835284938301828280156118b557602002820191905f5260205f20905b81546001600160a01b03168152600190910190602001808311611897575b5050505050905080515f036118cd575f915050610853565b60405163d06ca61f60e01b81526001600160a01b037f0000000000000000000000000000000000000000000000000000000000000000169063d06ca61f9061191b9086908590600401612a05565b5f60405180830381865afa92505050801561195757506040513d5f823e601f3d908101601f191682016040526119549190810190612a31565b60015b611964575f915050610853565b80600182516119739190612912565b815181106119835761198361295d565b602002602001015192505050610853565b818111156119bf5760405163026266c760e11b81526004810183905260248101829052604401610757565b5f826119cb8382612912565b6119d7906127106129cf565b6119e191906129e6565b90506101f481111561087d5760405163026266c760e11b81526004810184905260248101839052604401610757565b6040516001600160a01b0380851660248301528316604482015260648101829052611a7b9085906323b872dd60e01b906084015b60408051601f198184030181529190526020810180516001600160e01b03166001600160e01b031990931692909217909152612150565b50505050565b6001600160a01b0383165f908152600a6020908152604080832080548251818502810185019093528083528493830182828015611ae557602002820191905f5260205f20905b81546001600160a01b03168152600190910190602001808311611ac7575b50505050509050611b2a7f000000000000000000000000000000000000000000000000000000000000000085876001600160a01b03166122239092919063ffffffff16565b5f611b37610384426128ff565b6040516338ed173960e01b81529091506001600160a01b037f000000000000000000000000000000000000000000000000000000000000000016906338ed173990611b8e9088908890879030908890600401612af9565b5f604051808303815f875af1925050508015611bcb57506040513d5f823e601f3d908101601f19168201604052611bc89190810190612a31565b60015b611be85760405163eacd787560e01b815260040160405180910390fd5b5f8160018351611bf89190612912565b81518110611c0857611c0861295d565b6020026020010151905085811015611c335760405163f173589f60e01b815260040160405180910390fd5b935061121f92505050565b80805f03611c5f576040516303783e8b60e41b815260040160405180910390fd5b5f611c686116a5565b90507f0000000000000000000000000000000000000000000000000000000000000000611c9584836128ff565b1115611cc65782610739827f0000000000000000000000000000000000000000000000000000000000000000612912565b6001600160a01b038085165f9081526003602090815260408083207f000000000000000000000000000000000000000000000000000000000000000090941683529290529081208054859290611d1d9084906128ff565b90915550506001600160a01b037f0000000000000000000000000000000000000000000000000000000000000000165f9081526004602052604081208054859290611d699084906128ff565b909155505060088054905f611d7d83612925565b91905055507f00000000000000000000000000000000000000000000000000000000000000006001600160a01b0316846001600160a01b03167fdcbc1c05240f31ff3ad067ef1ee35ce4997762752e3a095284754544f4c709d78586604051611df0929190918252602082015260400190565b60405180910390a350505050565b5f6001600160a01b038316611e1d57611e168261167b565b9050610853565b6001600160a01b0383165f9081526006602052604081205460ff1690819003611ede57836001600160a01b031663313ce5676040518163ffffffff1660e01b8152600401602060405180830381865afa925050508015611e9a575060408051601f3d908101601f19168201909252611e979181019061293d565b60015b611eb757604051630bef610f60e21b815260040160405180910390fd5b6001600160a01b0385165f908152600660205260409020805460ff191660ff831617905590505b600660ff82161115611f1257611ef5600682612b34565b611f0090600a612c30565b611f0a90846129e6565b915050610853565b600660ff82161015611f3e57611f29816006612b34565b611f3490600a612c30565b611f0a90846129cf565b82915050610853565b5f805f805f60025f9054906101000a90046001600160a01b03166001600160a01b031663feaf968c6040518163ffffffff1660e01b815260040160a060405180830381865afa158015611f9c573d5f803e3d5ffd5b505050506040513d601f19601f82011682018060405250810190611fc09190612c57565b9450945050935093505f8313611fe95760405163330f156f60e01b815260040160405180910390fd5b610e10611ff68342612912565b111561201557604051632cbf51d160e21b815260040160405180910390fd5b8369ffffffffffffffffffff168169ffffffffffffffffffff16101561204e57604051632cbf51d160e21b815260040160405180910390fd5b50909392505050565b6040516001600160a01b03831660248201526044810182905261087d90849063a9059cbb60e01b90606401611a44565b5f826001600160a01b0316826040515f6040518083038185875af1925050503d805f81146120d0576040519150601f19603f3d011682016040523d82523d5f602084013e6120d5565b606091505b505090508061087d57604051635d32f6bf60e11b815260040160405180910390fd5b6121018282610dca565b6108fc5761210e816122b1565b6121198360206122c3565b60405160200161212a929190612cbc565b60408051601f198184030181529082905262461bcd60e51b825261075791600401612d11565b5f6121a4826040518060400160405280602081526020017f5361666545524332303a206c6f772d6c6576656c2063616c6c206661696c6564815250856001600160a01b03166124599092919063ffffffff16565b905080515f14806121c45750808060200190518101906121c49190612d46565b61087d5760405162461bcd60e51b815260206004820152602a60248201527f5361666545524332303a204552433230206f7065726174696f6e20646964206e6044820152691bdd081cdd58d8d9595960b21b6064820152608401610757565b604080516001600160a01b038416602482015260448082018490528251808303909101815260649091019091526020810180516001600160e01b031663095ea7b360e01b179052612274848261246f565b611a7b576040516001600160a01b03841660248201525f60448201526122a790859063095ea7b360e01b90606401611a44565b611a7b8482612150565b60606108536001600160a01b03831660145b60605f6122d18360026129cf565b6122dc9060026128ff565b67ffffffffffffffff8111156122f4576122f4612a1d565b6040519080825280601f01601f19166020018201604052801561231e576020820181803683370190505b509050600360fc1b815f815181106123385761233861295d565b60200101906001600160f81b03191690815f1a905350600f60fb1b816001815181106123665761236661295d565b60200101906001600160f81b03191690815f1a9053505f6123888460026129cf565b6123939060016128ff565b90505b600181111561240a576f181899199a1a9b1b9c1cb0b131b232b360811b85600f16601081106123c7576123c761295d565b1a60f81b8282815181106123dd576123dd61295d565b60200101906001600160f81b03191690815f1a90535060049490941c9361240381612d65565b9050612396565b50831561121f5760405162461bcd60e51b815260206004820181905260248201527f537472696e67733a20686578206c656e67746820696e73756666696369656e746044820152606401610757565b606061246784845f85612510565b949350505050565b5f805f846001600160a01b03168460405161248a9190612d7a565b5f604051808303815f865af19150503d805f81146124c3576040519150601f19603f3d011682016040523d82523d5f602084013e6124c8565b606091505b50915091508180156124f25750805115806124f25750808060200190518101906124f29190612d46565b801561250757506001600160a01b0385163b15155b95945050505050565b6060824710156125715760405162461bcd60e51b815260206004820152602660248201527f416464726573733a20696e73756666696369656e742062616c616e636520666f6044820152651c8818d85b1b60d21b6064820152608401610757565b5f80866001600160a01b0316858760405161258c9190612d7a565b5f6040518083038185875af1925050503d805f81146125c6576040519150601f19603f3d011682016040523d82523d5f602084013e6125cb565b606091505b50915091506125dc878383876125e7565b979650505050505050565b606083156126555782515f0361264e576001600160a01b0385163b61264e5760405162461bcd60e51b815260206004820152601d60248201527f416464726573733a2063616c6c20746f206e6f6e2d636f6e74726163740000006044820152606401610757565b5081612467565b612467838381511561266a5781518083602001fd5b8060405162461bcd60e51b81526004016107579190612d11565b828054828255905f5260205f209081019282156126d5579160200282015b828111156126d55781546001600160a01b0319166001600160a01b038435161782556020909201916001909101906126a2565b506126e19291506126e5565b5090565b5b808211156126e1575f81556001016126e6565b5f60208284031215612709575f80fd5b81356001600160e01b03198116811461121f575f80fd5b5f60208284031215612730575f80fd5b5035919050565b80356001600160a01b038116811461274d575f80fd5b919050565b5f8060408385031215612763575f80fd5b8235915061277360208401612737565b90509250929050565b5f6020828403121561278c575f80fd5b61121f82612737565b5f80604083850312156127a6575f80fd5b6127af83612737565b915061277360208401612737565b5f805f606084860312156127cf575f80fd5b6127d884612737565b95602085013595506040909401359392505050565b5f80604083850312156127fe575f80fd5b61280783612737565b946020939093013593505050565b5f8151808452602084019350602083015f5b8281101561284e5781516001600160a01b0316865260209586019590910190600101612827565b5093949350505050565b602081525f61121f6020830184612815565b5f805f6040848603121561287c575f80fd5b61288584612737565b9250602084013567ffffffffffffffff8111156128a0575f80fd5b8401601f810186136128b0575f80fd5b803567ffffffffffffffff8111156128c6575f80fd5b8660208260051b84010111156128da575f80fd5b939660209190910195509293505050565b634e487b7160e01b5f52601160045260245ffd5b80820180821115610853576108536128eb565b81810381811115610853576108536128eb565b5f60018201612936576129366128eb565b5060010190565b5f6020828403121561294d575f80fd5b815160ff8116811461121f575f80fd5b634e487b7160e01b5f52603260045260245ffd5b634e487b7160e01b5f52603160045260245ffd5b602080825281018290525f8360408301825b858110156129c5576001600160a01b036129b084612737565b16825260209283019290910190600101612997565b5095945050505050565b8082028115828204841417610853576108536128eb565b5f82612a0057634e487b7160e01b5f52601260045260245ffd5b500490565b828152604060208201525f6124676040830184612815565b634e487b7160e01b5f52604160045260245ffd5b5f60208284031215612a41575f80fd5b815167ffffffffffffffff811115612a57575f80fd5b8201601f81018413612a67575f80fd5b805167ffffffffffffffff811115612a8157612a81612a1d565b8060051b604051601f19603f830116810181811067ffffffffffffffff82111715612aae57612aae612a1d565b604052918252602081840181019290810187841115612acb575f80fd5b6020850194505b83851015612aee57845180825260209586019590935001612ad2565b509695505050505050565b85815284602082015260a060408201525f612b1760a0830186612815565b6001600160a01b0394909416606083015250608001529392505050565b60ff8281168282160390811115610853576108536128eb565b6001815b6001841115612b8857808504811115612b6c57612b6c6128eb565b6001841615612b7a57908102905b60019390931c928002612b51565b935093915050565b5f82612b9e57506001610853565b81612baa57505f610853565b8160018114612bc05760028114612bca57612be6565b6001915050610853565b60ff841115612bdb57612bdb6128eb565b50506001821b610853565b5060208310610133831016604e8410600b8410161715612c09575081810a610853565b612c155f198484612b4d565b805f1904821115612c2857612c286128eb565b029392505050565b5f61121f60ff841683612b90565b805169ffffffffffffffffffff8116811461274d575f80fd5b5f805f805f60a08688031215612c6b575f80fd5b612c7486612c3e565b60208701516040880151606089015192975090955093509150612c9960808701612c3e565b90509295509295909350565b5f81518060208401855e5f93019283525090919050565b7f416363657373436f6e74726f6c3a206163636f756e742000000000000000000081525f612ced6017830185612ca5565b7001034b99036b4b9b9b4b733903937b6329607d1b81526125076011820185612ca5565b602081525f82518060208401528060208501604085015e5f604082850101526040601f19601f83011684010191505092915050565b5f60208284031215612d56575f80fd5b8151801515811461121f575f80fd5b5f81612d7357612d736128eb565b505f190190565b5f61121f8284612ca556fea49807205ce4d355092ef5a8a18f56e8913cf4a201fbe287825b095693c21775a26469706673582212205face23f15568ddf8ae1e522c9a9b0b3581a96aeb565b9c156068e1ae3e97aa164736f6c634300081a0033","linkReferences":{}},"methodIdentifiers":{"ADMIN_ROLE()":"75b238fc","BANK_CAP_USD()":"893b7e95","DEFAULT_ADMIN_ROLE()":"a217fddf","DEFAULT_DEADLINE()":"a7bd60f6","MAX_SLIPPAGE_BPS()":"e229cd76","USDC()":"89a30271","WITHDRAWAL_LIMIT_USD()":"1936d890","addSupportedToken(address)":"6d69fcaf","depositERC20(address,uint256)":"97feb926","depositETH()":"f6326fb3","depositTokenWithSwap(address,uint256,uint256)":"6df5239f","getAvailableSpaceUSD()":"b3bfd40e","getCounters()":"6abb871f","getEthUsdPrice()":"a0a8045e","getExpectedOutput(address,uint256)":"d1b50a8c","getRoleAdmin(bytes32)":"248a9ca3","getSupportedTokens()":"d3c7c2c7","getSwapPath(address)":"f63fb921","getTotalBankBalanceUSD()":"dff423e4","getUserBalance(address,address)":"6805d6ad","grantRole(bytes32,address)":"2f2ff15d","hasRole(bytes32,address)":"91d14854","isTokenSupported(address)":"75151b63","removeSupportedToken(address)":"76319190","renounceRole(bytes32,address)":"36568abe","revokeRole(bytes32,address)":"d547741f","setEthUsdFeed(address)":"55a75475","setSwapPath(address,address[])":"df6d21f0","supportsInterface(bytes4)":"01ffc9a7","uniswapRouter()":"735de9f7","usdcAddress()":"02d45457","withdrawERC20(address,uint256)":"a1db9782","withdrawETH(uint256)":"f14210a6"},"id":35}