{"abi":[{"type":"constructor","inputs":[{"name":"bankCapUSD","type":"uint256","internalType":"uint256"},{"name":"withdrawalLimitUSD","type":"uint256","internalType":"uint256"},{"name":"ethUsdFeed","type":"address","internalType":"address"},{"name":"admin","type":"address","internalType":"address"},{"name":"usdc","type":"address","internalType":"address"}],"stateMutability":"nonpayable"},{"type":"fallback","stateMutability":"payable"},{"type":"receive","stateMutability":"payable"},{"type":"function","name":"ADMIN_ROLE","inputs":[],"outputs":[{"name":"","type":"bytes32","internalType":"bytes32"}],"stateMutability":"view"},{"type":"function","name":"BANK_CAP_USD","inputs":[],"outputs":[{"name":"","type":"uint256","internalType":"uint256"}],"stateMutability":"view"},{"type":"function","name":"DEFAULT_ADMIN_ROLE","inputs":[],"outputs":[{"name":"","type":"bytes32","internalType":"bytes32"}],"stateMutability":"view"},{"type":"function","name":"USDC","inputs":[],"outputs":[{"name":"","type":"address","internalType":"address"}],"stateMutability":"view"},{"type":"function","name":"WITHDRAWAL_LIMIT_USD","inputs":[],"outputs":[{"name":"","type":"uint256","internalType":"uint256"}],"stateMutability":"view"},{"type":"function","name":"addSupportedToken","inputs":[{"name":"token","type":"address","internalType":"address"}],"outputs":[],"stateMutability":"nonpayable"},{"type":"function","name":"depositERC20","inputs":[{"name":"token","type":"address","internalType":"address"},{"name":"amount","type":"uint256","internalType":"uint256"}],"outputs":[],"stateMutability":"nonpayable"},{"type":"function","name":"depositETH","inputs":[],"outputs":[],"stateMutability":"payable"},{"type":"function","name":"getAvailableSpaceUSD","inputs":[],"outputs":[{"name":"","type":"uint256","internalType":"uint256"}],"stateMutability":"view"},{"type":"function","name":"getCounters","inputs":[],"outputs":[{"name":"deposits","type":"uint256","internalType":"uint256"},{"name":"withdrawals","type":"uint256","internalType":"uint256"}],"stateMutability":"view"},{"type":"function","name":"getEthUsdPrice","inputs":[],"outputs":[{"name":"","type":"uint256","internalType":"uint256"}],"stateMutability":"view"},{"type":"function","name":"getRoleAdmin","inputs":[{"name":"role","type":"bytes32","internalType":"bytes32"}],"outputs":[{"name":"","type":"bytes32","internalType":"bytes32"}],"stateMutability":"view"},{"type":"function","name":"getSupportedTokens","inputs":[],"outputs":[{"name":"","type":"address[]","internalType":"address[]"}],"stateMutability":"view"},{"type":"function","name":"getTotalBankBalanceUSD","inputs":[],"outputs":[{"name":"","type":"uint256","internalType":"uint256"}],"stateMutability":"view"},{"type":"function","name":"getUserBalance","inputs":[{"name":"user","type":"address","internalType":"address"},{"name":"token","type":"address","internalType":"address"}],"outputs":[{"name":"","type":"uint256","internalType":"uint256"}],"stateMutability":"view"},{"type":"function","name":"grantRole","inputs":[{"name":"role","type":"bytes32","internalType":"bytes32"},{"name":"account","type":"address","internalType":"address"}],"outputs":[],"stateMutability":"nonpayable"},{"type":"function","name":"hasRole","inputs":[{"name":"role","type":"bytes32","internalType":"bytes32"},{"name":"account","type":"address","internalType":"address"}],"outputs":[{"name":"","type":"bool","internalType":"bool"}],"stateMutability":"view"},{"type":"function","name":"isTokenSupported","inputs":[{"name":"token","type":"address","internalType":"address"}],"outputs":[{"name":"","type":"bool","internalType":"bool"}],"stateMutability":"view"},{"type":"function","name":"removeSupportedToken","inputs":[{"name":"token","type":"address","internalType":"address"}],"outputs":[],"stateMutability":"nonpayable"},{"type":"function","name":"renounceRole","inputs":[{"name":"role","type":"bytes32","internalType":"bytes32"},{"name":"account","type":"address","internalType":"address"}],"outputs":[],"stateMutability":"nonpayable"},{"type":"function","name":"revokeRole","inputs":[{"name":"role","type":"bytes32","internalType":"bytes32"},{"name":"account","type":"address","internalType":"address"}],"outputs":[],"stateMutability":"nonpayable"},{"type":"function","name":"setEthUsdFeed","inputs":[{"name":"newFeed","type":"address","internalType":"address"}],"outputs":[],"stateMutability":"nonpayable"},{"type":"function","name":"supportsInterface","inputs":[{"name":"interfaceId","type":"bytes4","internalType":"bytes4"}],"outputs":[{"name":"","type":"bool","internalType":"bool"}],"stateMutability":"view"},{"type":"function","name":"withdrawERC20","inputs":[{"name":"token","type":"address","internalType":"address"},{"name":"amount","type":"uint256","internalType":"uint256"}],"outputs":[],"stateMutability":"nonpayable"},{"type":"function","name":"withdrawETH","inputs":[{"name":"amount","type":"uint256","internalType":"uint256"}],"outputs":[],"stateMutability":"nonpayable"},{"type":"event","name":"Deposit","inputs":[{"name":"user","type":"address","indexed":true,"internalType":"address"},{"name":"token","type":"address","indexed":true,"internalType":"address"},{"name":"amount","type":"uint256","indexed":false,"internalType":"uint256"},{"name":"amountUSD","type":"uint256","indexed":false,"internalType":"uint256"}],"anonymous":false},{"type":"event","name":"FeedUpdated","inputs":[{"name":"newFeed","type":"address","indexed":true,"internalType":"address"}],"anonymous":false},{"type":"event","name":"RoleAdminChanged","inputs":[{"name":"role","type":"bytes32","indexed":true,"internalType":"bytes32"},{"name":"previousAdminRole","type":"bytes32","indexed":true,"internalType":"bytes32"},{"name":"newAdminRole","type":"bytes32","indexed":true,"internalType":"bytes32"}],"anonymous":false},{"type":"event","name":"RoleGranted","inputs":[{"name":"role","type":"bytes32","indexed":true,"internalType":"bytes32"},{"name":"account","type":"address","indexed":true,"internalType":"address"},{"name":"sender","type":"address","indexed":true,"internalType":"address"}],"anonymous":false},{"type":"event","name":"RoleRevoked","inputs":[{"name":"role","type":"bytes32","indexed":true,"internalType":"bytes32"},{"name":"account","type":"address","indexed":true,"internalType":"address"},{"name":"sender","type":"address","indexed":true,"internalType":"address"}],"anonymous":false},{"type":"event","name":"TokenAdded","inputs":[{"name":"token","type":"address","indexed":true,"internalType":"address"}],"anonymous":false},{"type":"event","name":"TokenRemoved","inputs":[{"name":"token","type":"address","indexed":true,"internalType":"address"}],"anonymous":false},{"type":"event","name":"Withdrawal","inputs":[{"name":"user","type":"address","indexed":true,"internalType":"address"},{"name":"token","type":"address","indexed":true,"internalType":"address"},{"name":"amount","type":"uint256","indexed":false,"internalType":"uint256"},{"name":"amountUSD","type":"uint256","indexed":false,"internalType":"uint256"}],"anonymous":false},{"type":"error","name":"KipuBankV2__AmountMustBeGreaterThanZero","inputs":[]},{"type":"error","name":"KipuBankV2__DepositExceedsBankCap","inputs":[{"name":"attempted","type":"uint256","internalType":"uint256"},{"name":"available","type":"uint256","internalType":"uint256"}]},{"type":"error","name":"KipuBankV2__InsufficientBalance","inputs":[{"name":"requested","type":"uint256","internalType":"uint256"},{"name":"available","type":"uint256","internalType":"uint256"}]},{"type":"error","name":"KipuBankV2__InvalidToken","inputs":[]},{"type":"error","name":"KipuBankV2__OracleCompromised","inputs":[]},{"type":"error","name":"KipuBankV2__StalePrice","inputs":[]},{"type":"error","name":"KipuBankV2__TokenAlreadySupported","inputs":[]},{"type":"error","name":"KipuBankV2__TokenNotSupported","inputs":[]},{"type":"error","name":"KipuBankV2__TransferFailed","inputs":[]},{"type":"error","name":"KipuBankV2__WithdrawalExceedsLimit","inputs":[{"name":"attempted","type":"uint256","internalType":"uint256"},{"name":"limit","type":"uint256","internalType":"uint256"}]}],"bytecode":{"object":"0x60e060405234801561000f575f80fd5b5060405161228c38038061228c83398101604081905261002e916101c6565b60018055608085905260a08490526001600160a01b0381811660c052600280546001600160a01b03191691851691909117905561006b5f8361010e565b6100957fa49807205ce4d355092ef5a8a18f56e8913cf4a201fbe287825b095693c217758361010e565b5050600560205250507f05b8ccbb9d4d8fb16ea74ce3c29a41f1b461fbdaff4714a0d9a8eb05499746bc805460ff191660019081179091556007805491820181555f527fa66cc928b5edb82af9bd49922954155ab7b0942694bea4ce44661d9a8736c6880180546001600160a01b03191690555061021a565b5f828152602081815260408083206001600160a01b038516845290915290205460ff166101a7575f828152602081815260408083206001600160a01b03851684529091529020805460ff191660011790556101663390565b6001600160a01b0316816001600160a01b0316837f2f8788117e7eff1d82e926ec794901d17c78024a50270940304540a733656f0d60405160405180910390a45b5050565b80516001600160a01b03811681146101c1575f80fd5b919050565b5f805f805f60a086880312156101da575f80fd5b8551602087015190955093506101f2604087016101ab565b9250610200606087016101ab565b915061020e608087016101ab565b90509295509295909350565b60805160a05160c05161200261028a5f395f6103c401525f81816101c501528181610d4001528181610d7c01528181610ff3015261102f01525f81816103910152818161054b0152818161058101528181610b8801528181610bbe01528181610ed30152610f0501526120025ff3fe608060405260043610610169575f3560e01c8063893b7e95116100d0578063a217fddf11610089578063d547741f11610063578063d547741f146104b7578063dff423e4146104d6578063f14210a6146104ea578063f6326fb31461050957610178565b8063a217fddf1461046f578063b3bfd40e14610482578063d3c7c2c71461049657610178565b8063893b7e951461038057806389a30271146103b357806391d14854146103fe57806397feb9261461041d578063a0a8045e1461043c578063a1db97821461045057610178565b80636805d6ad116101225780636805d6ad146102805780636abb871f146102c45780636d69fcaf146102eb57806375151b631461030a57806375b238fc14610341578063763191901461036157610178565b806301ffc9a7146101805780631936d890146101b4578063248a9ca3146101f55780632f2ff15d1461022357806336568abe1461024257806355a754751461026157610178565b3661017857610176610511565b005b610176610511565b34801561018b575f80fd5b5061019f61019a366004611b37565b61068f565b60405190151581526020015b60405180910390f35b3480156101bf575f80fd5b506101e77f000000000000000000000000000000000000000000000000000000000000000081565b6040519081526020016101ab565b348015610200575f80fd5b506101e761020f366004611b5e565b5f9081526020819052604090206001015490565b34801561022e575f80fd5b5061017661023d366004611b90565b6106c5565b34801561024d575f80fd5b5061017661025c366004611b90565b6106ee565b34801561026c575f80fd5b5061017661027b366004611bba565b61076c565b34801561028b575f80fd5b506101e761029a366004611bd3565b6001600160a01b039182165f90815260036020908152604080832093909416825291909152205490565b3480156102cf575f80fd5b50600854600954604080519283526020830191909152016101ab565b3480156102f6575f80fd5b50610176610305366004611bba565b6107cd565b348015610315575f80fd5b5061019f610324366004611bba565b6001600160a01b03165f9081526005602052604090205460ff1690565b34801561034c575f80fd5b506101e75f80516020611fad83398151915281565b34801561036c575f80fd5b5061017661037b366004611bba565b61094a565b34801561038b575f80fd5b506101e77f000000000000000000000000000000000000000000000000000000000000000081565b3480156103be575f80fd5b506103e67f000000000000000000000000000000000000000000000000000000000000000081565b6040516001600160a01b0390911681526020016101ab565b348015610409575f80fd5b5061019f610418366004611b90565b610ae5565b348015610428575f80fd5b50610176610437366004611bfb565b610b0d565b348015610447575f80fd5b506101e7610cc2565b34801561045b575f80fd5b5061017661046a366004611bfb565b610cd0565b34801561047a575f80fd5b506101e75f81565b34801561048d575f80fd5b506101e7610ec5565b3480156104a1575f80fd5b506104aa610f2f565b6040516101ab9190611c23565b3480156104c2575f80fd5b506101766104d1366004611b90565b610f8f565b3480156104e1575f80fd5b506101e7610fb3565b3480156104f5575f80fd5b50610176610504366004611b5e565b610fbc565b610176611177565b34805f03610532576040516303783e8b60e41b815260040160405180910390fd5b5f61053c34611192565b90505f6105476111c3565b90507f00000000000000000000000000000000000000000000000000000000000000006105748383611c82565b11156105cc57816105a5827f0000000000000000000000000000000000000000000000000000000000000000611c95565b6040516382651efd60e01b8152600481019290925260248201526044015b60405180910390fd5b335f908152600360209081526040808320838052909152812080548492906105f5908490611c82565b90915550505f80805260046020527f17ef568e3e12ab5b9c7254a8d58478811de00f9e6eb34345acd53bf8fd09d3ec8054849290610634908490611c82565b909155505060088054905f61064883611ca8565b909155505060408051348152602081018490525f9133917fdcbc1c05240f31ff3ad067ef1ee35ce4997762752e3a095284754544f4c709d7910160405180910390a3505050565b5f6001600160e01b03198216637965db0b60e01b14806106bf57506301ffc9a760e01b6001600160e01b03198316145b92915050565b5f828152602081905260409020600101546106df81611225565b6106e9838361122f565b505050565b6001600160a01b038116331461075e5760405162461bcd60e51b815260206004820152602f60248201527f416363657373436f6e74726f6c3a2063616e206f6e6c792072656e6f756e636560448201526e103937b632b9903337b91039b2b63360891b60648201526084016105c3565b61076882826112b2565b5050565b5f80516020611fad83398151915261078381611225565b600280546001600160a01b0319166001600160a01b0384169081179091556040517f3bb3a2cd941891a83cb5e1a494307c71512cdbbc4a87abd52dd499e969cdfa35905f90a25050565b5f80516020611fad8339815191526107e481611225565b6001600160a01b0382165f9081526005602052604090205460ff161561081d576040516370535c0960e01b815260040160405180910390fd5b816001600160a01b031663313ce5676040518163ffffffff1660e01b8152600401602060405180830381865afa925050508015610877575060408051601f3d908101601f1916820190925261087491810190611cc0565b60015b61089457604051630bef610f60e21b815260040160405180910390fd5b6001600160a01b0383165f908152600660205260409020805460ff90921660ff199092169190911790556001600160a01b0382165f81815260056020526040808220805460ff1916600190811790915560078054918201815583527fa66cc928b5edb82af9bd49922954155ab7b0942694bea4ce44661d9a8736c6880180546001600160a01b03191684179055517f784c8f4dbf0ffedd6e72c76501c545a70f8b203b30a26ce542bf92ba87c248a49190a25050565b5f80516020611fad83398151915261096181611225565b6001600160a01b0382165f9081526005602052604090205460ff16610999576040516316afee2f60e21b815260040160405180910390fd5b6001600160a01b0382165f908152600560205260408120805460ff191690555b600754811015610aad57826001600160a01b0316600782815481106109e0576109e0611ce0565b5f918252602090912001546001600160a01b031603610aa55760078054610a0990600190611c95565b81548110610a1957610a19611ce0565b5f91825260209091200154600780546001600160a01b039092169183908110610a4457610a44611ce0565b905f5260205f20015f6101000a8154816001600160a01b0302191690836001600160a01b031602179055506007805480610a8057610a80611cf4565b5f8281526020902081015f1990810180546001600160a01b0319169055019055610aad565b6001016109b9565b506040516001600160a01b038316907f4c910b69fe65a61f7531b9c5042b2329ca7179c77290aa7e2eb3afa3c8511fd3905f90a25050565b5f918252602082815260408084206001600160a01b0393909316845291905290205460ff1690565b610b15611316565b80805f03610b36576040516303783e8b60e41b815260040160405180910390fd5b6001600160a01b0383165f9081526005602052604090205460ff16610b6e576040516316afee2f60e21b815260040160405180910390fd5b5f610b79848461136f565b90505f610b846111c3565b90507f0000000000000000000000000000000000000000000000000000000000000000610bb18383611c82565b1115610be257816105a5827f0000000000000000000000000000000000000000000000000000000000000000611c95565b335f9081526003602090815260408083206001600160a01b038916845290915281208054849290610c14908490611c82565b90915550506001600160a01b0385165f9081526004602052604081208054849290610c40908490611c82565b909155505060088054905f610c5483611ca8565b90915550610c6f90506001600160a01b0386163330876114b8565b60408051858152602081018490526001600160a01b0387169133917fdcbc1c05240f31ff3ad067ef1ee35ce4997762752e3a095284754544f4c709d791015b60405180910390a350505061076860018055565b5f610ccb611529565b905090565b610cd8611316565b80805f03610cf9576040516303783e8b60e41b815260040160405180910390fd5b6001600160a01b0383165f9081526005602052604090205460ff16610d31576040516316afee2f60e21b815260040160405180910390fd5b5f610d3c848461136f565b90507f0000000000000000000000000000000000000000000000000000000000000000811115610da8576040516309a1d4f360e21b8152600481018290527f000000000000000000000000000000000000000000000000000000000000000060248201526044016105c3565b335f9081526003602090815260408083206001600160a01b038816845290915290205480821115610df6576040516305016a2360e11b815260048101839052602481018290526044016105c3565b335f9081526003602090815260408083206001600160a01b038916845290915281208054849290610e28908490611c95565b90915550506001600160a01b0385165f9081526004602052604081208054849290610e54908490611c95565b909155505060098054905f610e6883611ca8565b90915550610e8290506001600160a01b0386163386611639565b60408051858152602081018490526001600160a01b0387169133917fc2b4a290c20fb28939d29f102514fbffd2b73c059ffba8b78250c94161d5fcc69101610cae565b5f80610ecf6111c3565b90507f00000000000000000000000000000000000000000000000000000000000000008110610eff575f91505090565b610f29817f0000000000000000000000000000000000000000000000000000000000000000611c95565b91505090565b60606007805480602002602001604051908101604052809291908181526020018280548015610f8557602002820191905f5260205f20905b81546001600160a01b03168152600190910190602001808311610f67575b5050505050905090565b5f82815260208190526040902060010154610fa981611225565b6106e983836112b2565b5f610ccb6111c3565b610fc4611316565b80805f03610fe5576040516303783e8b60e41b815260040160405180910390fd5b5f610fef83611192565b90507f000000000000000000000000000000000000000000000000000000000000000081111561105b576040516309a1d4f360e21b8152600481018290527f000000000000000000000000000000000000000000000000000000000000000060248201526044016105c3565b335f908152600360209081526040808320838052909152902054808211156110a0576040516305016a2360e11b815260048101839052602481018290526044016105c3565b335f908152600360209081526040808320838052909152812080548492906110c9908490611c95565b90915550505f80805260046020527f17ef568e3e12ab5b9c7254a8d58478811de00f9e6eb34345acd53bf8fd09d3ec8054849290611108908490611c95565b909155505060098054905f61111c83611ca8565b919050555061112b3385611669565b60408051858152602081018490525f9133917fc2b4a290c20fb28939d29f102514fbffd2b73c059ffba8b78250c94161d5fcc6910160405180910390a350505061117460018055565b50565b61117f611316565b611187610511565b61119060018055565b565b5f8061119c611529565b905068056bc75e2d631000006111b28285611d08565b6111bc9190611d1f565b9392505050565b5f80805b60075481101561121f5760045f600783815481106111e7576111e7611ce0565b5f9182526020808320909101546001600160a01b031683528201929092526040019020546112159083611c82565b91506001016111c7565b50919050565b61117481336116d9565b6112398282610ae5565b610768575f828152602081815260408083206001600160a01b03851684529091529020805460ff1916600117905561126e3390565b6001600160a01b0316816001600160a01b0316837f2f8788117e7eff1d82e926ec794901d17c78024a50270940304540a733656f0d60405160405180910390a45050565b6112bc8282610ae5565b15610768575f828152602081815260408083206001600160a01b0385168085529252808320805460ff1916905551339285917ff6391f5c32d9c69d2a47ea670b442974b53935d1edc7fd64eb21e047a839171b9190a45050565b6002600154036113685760405162461bcd60e51b815260206004820152601f60248201527f5265656e7472616e637947756172643a207265656e7472616e742063616c6c0060448201526064016105c3565b6002600155565b5f6001600160a01b03831661138e5761138782611192565b90506106bf565b6001600160a01b0383165f9081526006602052604081205460ff169081900361144f57836001600160a01b031663313ce5676040518163ffffffff1660e01b8152600401602060405180830381865afa92505050801561140b575060408051601f3d908101601f1916820190925261140891810190611cc0565b60015b61142857604051630bef610f60e21b815260040160405180910390fd5b6001600160a01b0385165f908152600660205260409020805460ff191660ff831617905590505b600660ff8216111561148357611466600682611d3e565b61147190600a611e3a565b61147b9084611d1f565b9150506106bf565b600660ff821610156114af5761149a816006611d3e565b6114a590600a611e3a565b61147b9084611d08565b829150506106bf565b6040516001600160a01b03808516602483015283166044820152606481018290526115239085906323b872dd60e01b906084015b60408051601f198184030181529190526020810180516001600160e01b03166001600160e01b031990931692909217909152611732565b50505050565b5f805f805f60025f9054906101000a90046001600160a01b03166001600160a01b031663feaf968c6040518163ffffffff1660e01b815260040160a060405180830381865afa15801561157e573d5f803e3d5ffd5b505050506040513d601f19601f820116820180604052508101906115a29190611e61565b9450945050935093505f83136115cb5760405163330f156f60e01b815260040160405180910390fd5b610e106115d88342611c95565b11156115f757604051632cbf51d160e21b815260040160405180910390fd5b8369ffffffffffffffffffff168169ffffffffffffffffffff16101561163057604051632cbf51d160e21b815260040160405180910390fd5b50909392505050565b6040516001600160a01b0383166024820152604481018290526106e990849063a9059cbb60e01b906064016114ec565b5f826001600160a01b0316826040515f6040518083038185875af1925050503d805f81146116b2576040519150601f19603f3d011682016040523d82523d5f602084013e6116b7565b606091505b50509050806106e957604051635d32f6bf60e11b815260040160405180910390fd5b6116e38282610ae5565b610768576116f081611805565b6116fb836020611817565b60405160200161170c929190611ec6565b60408051601f198184030181529082905262461bcd60e51b82526105c391600401611f24565b5f611786826040518060400160405280602081526020017f5361666545524332303a206c6f772d6c6576656c2063616c6c206661696c6564815250856001600160a01b03166119ad9092919063ffffffff16565b905080515f14806117a65750808060200190518101906117a69190611f59565b6106e95760405162461bcd60e51b815260206004820152602a60248201527f5361666545524332303a204552433230206f7065726174696f6e20646964206e6044820152691bdd081cdd58d8d9595960b21b60648201526084016105c3565b60606106bf6001600160a01b03831660145b60605f611825836002611d08565b611830906002611c82565b67ffffffffffffffff81111561184857611848611f78565b6040519080825280601f01601f191660200182016040528015611872576020820181803683370190505b509050600360fc1b815f8151811061188c5761188c611ce0565b60200101906001600160f81b03191690815f1a905350600f60fb1b816001815181106118ba576118ba611ce0565b60200101906001600160f81b03191690815f1a9053505f6118dc846002611d08565b6118e7906001611c82565b90505b600181111561195e576f181899199a1a9b1b9c1cb0b131b232b360811b85600f166010811061191b5761191b611ce0565b1a60f81b82828151811061193157611931611ce0565b60200101906001600160f81b03191690815f1a90535060049490941c9361195781611f8c565b90506118ea565b5083156111bc5760405162461bcd60e51b815260206004820181905260248201527f537472696e67733a20686578206c656e67746820696e73756666696369656e7460448201526064016105c3565b60606119bb84845f856119c3565b949350505050565b606082471015611a245760405162461bcd60e51b815260206004820152602660248201527f416464726573733a20696e73756666696369656e742062616c616e636520666f6044820152651c8818d85b1b60d21b60648201526084016105c3565b5f80866001600160a01b03168587604051611a3f9190611fa1565b5f6040518083038185875af1925050503d805f8114611a79576040519150601f19603f3d011682016040523d82523d5f602084013e611a7e565b606091505b5091509150611a8f87838387611a9a565b979650505050505050565b60608315611b085782515f03611b01576001600160a01b0385163b611b015760405162461bcd60e51b815260206004820152601d60248201527f416464726573733a2063616c6c20746f206e6f6e2d636f6e747261637400000060448201526064016105c3565b50816119bb565b6119bb8383815115611b1d5781518083602001fd5b8060405162461bcd60e51b81526004016105c39190611f24565b5f60208284031215611b47575f80fd5b81356001600160e01b0319811681146111bc575f80fd5b5f60208284031215611b6e575f80fd5b5035919050565b80356001600160a01b0381168114611b8b575f80fd5b919050565b5f8060408385031215611ba1575f80fd5b82359150611bb160208401611b75565b90509250929050565b5f60208284031215611bca575f80fd5b6111bc82611b75565b5f8060408385031215611be4575f80fd5b611bed83611b75565b9150611bb160208401611b75565b5f8060408385031215611c0c575f80fd5b611c1583611b75565b946020939093013593505050565b602080825282518282018190525f918401906040840190835b81811015611c635783516001600160a01b0316835260209384019390920191600101611c3c565b509095945050505050565b634e487b7160e01b5f52601160045260245ffd5b808201808211156106bf576106bf611c6e565b818103818111156106bf576106bf611c6e565b5f60018201611cb957611cb9611c6e565b5060010190565b5f60208284031215611cd0575f80fd5b815160ff811681146111bc575f80fd5b634e487b7160e01b5f52603260045260245ffd5b634e487b7160e01b5f52603160045260245ffd5b80820281158282048414176106bf576106bf611c6e565b5f82611d3957634e487b7160e01b5f52601260045260245ffd5b500490565b60ff82811682821603908111156106bf576106bf611c6e565b6001815b6001841115611d9257808504811115611d7657611d76611c6e565b6001841615611d8457908102905b60019390931c928002611d5b565b935093915050565b5f82611da8575060016106bf565b81611db457505f6106bf565b8160018114611dca5760028114611dd457611df0565b60019150506106bf565b60ff841115611de557611de5611c6e565b50506001821b6106bf565b5060208310610133831016604e8410600b8410161715611e13575081810a6106bf565b611e1f5f198484611d57565b805f1904821115611e3257611e32611c6e565b029392505050565b5f6111bc60ff841683611d9a565b805169ffffffffffffffffffff81168114611b8b575f80fd5b5f805f805f60a08688031215611e75575f80fd5b611e7e86611e48565b60208701516040880151606089015192975090955093509150611ea360808701611e48565b90509295509295909350565b5f81518060208401855e5f93019283525090919050565b7f416363657373436f6e74726f6c3a206163636f756e742000000000000000000081525f611ef76017830185611eaf565b7001034b99036b4b9b9b4b733903937b6329607d1b8152611f1b6011820185611eaf565b95945050505050565b602081525f82518060208401528060208501604085015e5f604082850101526040601f19601f83011684010191505092915050565b5f60208284031215611f69575f80fd5b815180151581146111bc575f80fd5b634e487b7160e01b5f52604160045260245ffd5b5f81611f9a57611f9a611c6e565b505f190190565b5f6111bc8284611eaf56fea49807205ce4d355092ef5a8a18f56e8913cf4a201fbe287825b095693c21775a2646970667358221220939e777596294cb257be92418159ab733a657bce29bee979932eb3a770a74b9364736f6c634300081a0033","linkReferences":{}},"methodIdentifiers":{"ADMIN_ROLE()":"75b238fc","BANK_CAP_USD()":"893b7e95","DEFAULT_ADMIN_ROLE()":"a217fddf","USDC()":"89a30271","WITHDRAWAL_LIMIT_USD()":"1936d890","addSupportedToken(address)":"6d69fcaf","depositERC20(address,uint256)":"97feb926","depositETH()":"f6326fb3","getAvailableSpaceUSD()":"b3bfd40e","getCounters()":"6abb871f","getEthUsdPrice()":"a0a8045e","getRoleAdmin(bytes32)":"248a9ca3","getSupportedTokens()":"d3c7c2c7","getTotalBankBalanceUSD()":"dff423e4","getUserBalance(address,address)":"6805d6ad","grantRole(bytes32,address)":"2f2ff15d","hasRole(bytes32,address)":"91d14854","isTokenSupported(address)":"75151b63","removeSupportedToken(address)":"76319190","renounceRole(bytes32,address)":"36568abe","revokeRole(bytes32,address)":"d547741f","setEthUsdFeed(address)":"55a75475","supportsInterface(bytes4)":"01ffc9a7","withdrawERC20(address,uint256)":"a1db9782","withdrawETH(uint256)":"f14210a6"},"id":34}